{
  "_format": "hh-sol-artifact-1",
  "contractName": "ArtCollectible",
  "sourceName": "contracts/ArtCollectible.sol",
  "abi": [
    {
      "inputs": [],
      "stateMutability": "nonpayable",
      "type": "constructor"
    },
    {
      "anonymous": false,
      "inputs": [
        {
          "indexed": true,
          "internalType": "address",
          "name": "account",
          "type": "address"
        },
        {
          "indexed": true,
          "internalType": "address",
          "name": "operator",
          "type": "address"
        },
        {
          "indexed": false,
          "internalType": "bool",
          "name": "approved",
          "type": "bool"
        }
      ],
      "name": "ApprovalForAll",
      "type": "event"
    },
    {
      "anonymous": false,
      "inputs": [
        {
          "indexed": true,
          "internalType": "address",
          "name": "previousOwner",
          "type": "address"
        },
        {
          "indexed": true,
          "internalType": "address",
          "name": "newOwner",
          "type": "address"
        }
      ],
      "name": "OwnershipTransferred",
      "type": "event"
    },
    {
      "anonymous": false,
      "inputs": [
        {
          "indexed": true,
          "internalType": "address",
          "name": "operator",
          "type": "address"
        },
        {
          "indexed": true,
          "internalType": "address",
          "name": "from",
          "type": "address"
        },
        {
          "indexed": true,
          "internalType": "address",
          "name": "to",
          "type": "address"
        },
        {
          "indexed": false,
          "internalType": "uint256[]",
          "name": "ids",
          "type": "uint256[]"
        },
        {
          "indexed": false,
          "internalType": "uint256[]",
          "name": "values",
          "type": "uint256[]"
        }
      ],
      "name": "TransferBatch",
      "type": "event"
    },
    {
      "anonymous": false,
      "inputs": [
        {
          "indexed": true,
          "internalType": "address",
          "name": "operator",
          "type": "address"
        },
        {
          "indexed": true,
          "internalType": "address",
          "name": "from",
          "type": "address"
        },
        {
          "indexed": true,
          "internalType": "address",
          "name": "to",
          "type": "address"
        },
        {
          "indexed": false,
          "internalType": "uint256",
          "name": "id",
          "type": "uint256"
        },
        {
          "indexed": false,
          "internalType": "uint256",
          "name": "value",
          "type": "uint256"
        }
      ],
      "name": "TransferSingle",
      "type": "event"
    },
    {
      "anonymous": false,
      "inputs": [
        {
          "indexed": false,
          "internalType": "string",
          "name": "value",
          "type": "string"
        },
        {
          "indexed": true,
          "internalType": "uint256",
          "name": "id",
          "type": "uint256"
        }
      ],
      "name": "URI",
      "type": "event"
    },
    {
      "inputs": [
        {
          "internalType": "address",
          "name": "account",
          "type": "address"
        },
        {
          "internalType": "uint256",
          "name": "id",
          "type": "uint256"
        }
      ],
      "name": "balanceOf",
      "outputs": [
        {
          "internalType": "uint256",
          "name": "",
          "type": "uint256"
        }
      ],
      "stateMutability": "view",
      "type": "function"
    },
    {
      "inputs": [
        {
          "internalType": "address[]",
          "name": "accounts",
          "type": "address[]"
        },
        {
          "internalType": "uint256[]",
          "name": "ids",
          "type": "uint256[]"
        }
      ],
      "name": "balanceOfBatch",
      "outputs": [
        {
          "internalType": "uint256[]",
          "name": "",
          "type": "uint256[]"
        }
      ],
      "stateMutability": "view",
      "type": "function"
    },
    {
      "inputs": [
        {
          "internalType": "address",
          "name": "account",
          "type": "address"
        },
        {
          "internalType": "address",
          "name": "operator",
          "type": "address"
        }
      ],
      "name": "isApprovedForAll",
      "outputs": [
        {
          "internalType": "bool",
          "name": "",
          "type": "bool"
        }
      ],
      "stateMutability": "view",
      "type": "function"
    },
    {
      "inputs": [
        {
          "internalType": "uint256",
          "name": "id",
          "type": "uint256"
        },
        {
          "internalType": "uint256",
          "name": "amount",
          "type": "uint256"
        }
      ],
      "name": "mint",
      "outputs": [],
      "stateMutability": "nonpayable",
      "type": "function"
    },
    {
      "inputs": [
        {
          "internalType": "uint256[]",
          "name": "ids",
          "type": "uint256[]"
        },
        {
          "internalType": "uint256[]",
          "name": "amounts",
          "type": "uint256[]"
        }
      ],
      "name": "mintBatch",
      "outputs": [],
      "stateMutability": "nonpayable",
      "type": "function"
    },
    {
      "inputs": [],
      "name": "name",
      "outputs": [
        {
          "internalType": "string",
          "name": "",
          "type": "string"
        }
      ],
      "stateMutability": "view",
      "type": "function"
    },
    {
      "inputs": [],
      "name": "owner",
      "outputs": [
        {
          "internalType": "address",
          "name": "",
          "type": "address"
        }
      ],
      "stateMutability": "view",
      "type": "function"
    },
    {
      "inputs": [],
      "name": "renounceOwnership",
      "outputs": [],
      "stateMutability": "nonpayable",
      "type": "function"
    },
    {
      "inputs": [
        {
          "internalType": "address",
          "name": "from",
          "type": "address"
        },
        {
          "internalType": "address",
          "name": "to",
          "type": "address"
        },
        {
          "internalType": "uint256[]",
          "name": "ids",
          "type": "uint256[]"
        },
        {
          "internalType": "uint256[]",
          "name": "amounts",
          "type": "uint256[]"
        },
        {
          "internalType": "bytes",
          "name": "data",
          "type": "bytes"
        }
      ],
      "name": "safeBatchTransferFrom",
      "outputs": [],
      "stateMutability": "nonpayable",
      "type": "function"
    },
    {
      "inputs": [
        {
          "internalType": "address",
          "name": "from",
          "type": "address"
        },
        {
          "internalType": "address",
          "name": "to",
          "type": "address"
        },
        {
          "internalType": "uint256",
          "name": "id",
          "type": "uint256"
        },
        {
          "internalType": "uint256",
          "name": "amount",
          "type": "uint256"
        },
        {
          "internalType": "bytes",
          "name": "data",
          "type": "bytes"
        }
      ],
      "name": "safeTransferFrom",
      "outputs": [],
      "stateMutability": "nonpayable",
      "type": "function"
    },
    {
      "inputs": [
        {
          "internalType": "address",
          "name": "operator",
          "type": "address"
        },
        {
          "internalType": "bool",
          "name": "approved",
          "type": "bool"
        }
      ],
      "name": "setApprovalForAll",
      "outputs": [],
      "stateMutability": "nonpayable",
      "type": "function"
    },
    {
      "inputs": [
        {
          "internalType": "string",
          "name": "_name",
          "type": "string"
        }
      ],
      "name": "setName",
      "outputs": [],
      "stateMutability": "nonpayable",
      "type": "function"
    },
    {
      "inputs": [
        {
          "internalType": "string",
          "name": "_newuri",
          "type": "string"
        }
      ],
      "name": "setURI",
      "outputs": [],
      "stateMutability": "nonpayable",
      "type": "function"
    },
    {
      "inputs": [
        {
          "internalType": "bytes4",
          "name": "interfaceId",
          "type": "bytes4"
        }
      ],
      "name": "supportsInterface",
      "outputs": [
        {
          "internalType": "bool",
          "name": "",
          "type": "bool"
        }
      ],
      "stateMutability": "view",
      "type": "function"
    },
    {
      "inputs": [
        {
          "internalType": "address",
          "name": "newOwner",
          "type": "address"
        }
      ],
      "name": "transferOwnership",
      "outputs": [],
      "stateMutability": "nonpayable",
      "type": "function"
    },
    {
      "inputs": [
        {
          "internalType": "uint256",
          "name": "",
          "type": "uint256"
        }
      ],
      "name": "uri",
      "outputs": [
        {
          "internalType": "string",
          "name": "",
          "type": "string"
        }
      ],
      "stateMutability": "view",
      "type": "function"
    }
  ],
  "bytecode": "0x60806040523480156200001157600080fd5b506040518060600160405280603f815260200162003905603f91396200004c62000040620000aa60201b60201c565b620000b260201b60201c565b6200005d816200017660201b60201c565b50620000a46040518060400160405280601581526020017f555344414f204e46547320436f6c6c656374696f6e00000000000000000000008152506200019260201b60201c565b620003fe565b600033905090565b60008060009054906101000a900473ffffffffffffffffffffffffffffffffffffffff169050816000806101000a81548173ffffffffffffffffffffffffffffffffffffffff021916908373ffffffffffffffffffffffffffffffffffffffff1602179055508173ffffffffffffffffffffffffffffffffffffffff168173ffffffffffffffffffffffffffffffffffffffff167f8be0079c531659141344cd1fd0a4f28419497f9722a3daafe3b4186f6b6457e060405160405180910390a35050565b80600390805190602001906200018e92919062000266565b5050565b620001a2620000aa60201b60201c565b73ffffffffffffffffffffffffffffffffffffffff16620001c86200023d60201b60201c565b73ffffffffffffffffffffffffffffffffffffffff161462000221576040517f08c379a000000000000000000000000000000000000000000000000000000000815260040162000218906200033d565b60405180910390fd5b80600590805190602001906200023992919062000266565b5050565b60008060009054906101000a900473ffffffffffffffffffffffffffffffffffffffff16905090565b828054620002749062000370565b90600052602060002090601f016020900481019282620002985760008555620002e4565b82601f10620002b357805160ff1916838001178555620002e4565b82800160010185558215620002e4579182015b82811115620002e3578251825591602001919060010190620002c6565b5b509050620002f39190620002f7565b5090565b5b8082111562000312576000816000905550600101620002f8565b5090565b6000620003256020836200035f565b91506200033282620003d5565b602082019050919050565b60006020820190508181036000830152620003588162000316565b9050919050565b600082825260208201905092915050565b600060028204905060018216806200038957607f821691505b60208210811415620003a0576200039f620003a6565b5b50919050565b7f4e487b7100000000000000000000000000000000000000000000000000000000600052602260045260246000fd5b7f4f776e61626c653a2063616c6c6572206973206e6f7420746865206f776e6572600082015250565b6134f7806200040e6000396000f3fe608060405234801561001057600080fd5b50600436106100ff5760003560e01c8063715018a611610097578063d351cfdc11610066578063d351cfdc14610296578063e985e9c5146102b2578063f242432a146102e2578063f2fde38b146102fe576100ff565b8063715018a6146102365780638da5cb5b14610240578063a22cb4651461025e578063c47f00271461027a576100ff565b80630e89341c116100d35780630e89341c1461019e5780631b2ef1ca146101ce5780632eb2c2d6146101ea5780634e1273f414610206576100ff565b8062fdd58e1461010457806301ffc9a71461013457806302fe53051461016457806306fdde0314610180575b600080fd5b61011e600480360381019061011991906123cf565b61031a565b60405161012b9190612bd9565b60405180910390f35b61014e600480360381019061014991906124e3565b6103e4565b60405161015b91906129fc565b60405180910390f35b61017e60048036038101906101799190612535565b6104c6565b005b61018861054e565b6040516101959190612a17565b60405180910390f35b6101b860048036038101906101b39190612576565b6105dc565b6040516101c59190612a17565b60405180910390f35b6101e860048036038101906101e3919061259f565b610670565b005b61020460048036038101906101ff9190612245565b61070b565b005b610220600480360381019061021b919061240b565b6107ac565b60405161022d91906129a3565b60405180910390f35b61023e61095d565b005b6102486109e5565b60405161025591906128c6565b60405180910390f35b61027860048036038101906102739190612393565b610a0e565b005b610294600480360381019061028f9190612535565b610a24565b005b6102b060048036038101906102ab9190612477565b610aba565b005b6102cc60048036038101906102c79190612209565b610b55565b6040516102d991906129fc565b60405180910390f35b6102fc60048036038101906102f79190612304565b610be9565b005b610318600480360381019061031391906121e0565b610c8a565b005b60008073ffffffffffffffffffffffffffffffffffffffff168373ffffffffffffffffffffffffffffffffffffffff16141561038b576040517f08c379a000000000000000000000000000000000000000000000000000000000815260040161038290612a79565b60405180910390fd5b6001600083815260200190815260200160002060008473ffffffffffffffffffffffffffffffffffffffff1673ffffffffffffffffffffffffffffffffffffffff16815260200190815260200160002054905092915050565b60007fd9b67a26000000000000000000000000000000000000000000000000000000007bffffffffffffffffffffffffffffffffffffffffffffffffffffffff1916827bffffffffffffffffffffffffffffffffffffffffffffffffffffffff191614806104af57507f0e89341c000000000000000000000000000000000000000000000000000000007bffffffffffffffffffffffffffffffffffffffffffffffffffffffff1916827bffffffffffffffffffffffffffffffffffffffffffffffffffffffff1916145b806104bf57506104be82610d82565b5b9050919050565b6104ce610dec565b73ffffffffffffffffffffffffffffffffffffffff166104ec6109e5565b73ffffffffffffffffffffffffffffffffffffffff1614610542576040517f08c379a000000000000000000000000000000000000000000000000000000000815260040161053990612b39565b60405180910390fd5b61054b81610df4565b50565b6005805461055b90612e79565b80601f016020809104026020016040519081016040528092919081815260200182805461058790612e79565b80156105d45780601f106105a9576101008083540402835291602001916105d4565b820191906000526020600020905b8154815290600101906020018083116105b757829003601f168201915b505050505081565b6060600380546105eb90612e79565b80601f016020809104026020016040519081016040528092919081815260200182805461061790612e79565b80156106645780601f1061063957610100808354040283529160200191610664565b820191906000526020600020905b81548152906001019060200180831161064757829003601f168201915b50505050509050919050565b610678610dec565b73ffffffffffffffffffffffffffffffffffffffff166106966109e5565b73ffffffffffffffffffffffffffffffffffffffff16146106ec576040517f08c379a00000000000000000000000000000000000000000000000000000000081526004016106e390612b39565b60405180910390fd5b61070733838360405180602001604052806000815250610e0e565b5050565b610713610dec565b73ffffffffffffffffffffffffffffffffffffffff168573ffffffffffffffffffffffffffffffffffffffff161480610759575061075885610753610dec565b610b55565b5b610798576040517f08c379a000000000000000000000000000000000000000000000000000000000815260040161078f90612af9565b60405180910390fd5b6107a58585858585610fa5565b5050505050565b606081518351146107f2576040517f08c379a00000000000000000000000000000000000000000000000000000000081526004016107e990612b79565b60405180910390fd5b6000835167ffffffffffffffff811115610835577f4e487b7100000000000000000000000000000000000000000000000000000000600052604160045260246000fd5b6040519080825280602002602001820160405280156108635781602001602082028036833780820191505090505b50905060005b8451811015610952576108fc8582815181106108ae577f4e487b7100000000000000000000000000000000000000000000000000000000600052603260045260246000fd5b60200260200101518583815181106108ef577f4e487b7100000000000000000000000000000000000000000000000000000000600052603260045260246000fd5b602002602001015161031a565b828281518110610935577f4e487b7100000000000000000000000000000000000000000000000000000000600052603260045260246000fd5b6020026020010181815250508061094b90612edc565b9050610869565b508091505092915050565b610965610dec565b73ffffffffffffffffffffffffffffffffffffffff166109836109e5565b73ffffffffffffffffffffffffffffffffffffffff16146109d9576040517f08c379a00000000000000000000000000000000000000000000000000000000081526004016109d090612b39565b60405180910390fd5b6109e36000611308565b565b60008060009054906101000a900473ffffffffffffffffffffffffffffffffffffffff16905090565b610a20610a19610dec565b83836113cc565b5050565b610a2c610dec565b73ffffffffffffffffffffffffffffffffffffffff16610a4a6109e5565b73ffffffffffffffffffffffffffffffffffffffff1614610aa0576040517f08c379a0000000000000000000000000000000000000000000000000000000008152600401610a9790612b39565b60405180910390fd5b8060059080519060200190610ab6929190611ed8565b5050565b610ac2610dec565b73ffffffffffffffffffffffffffffffffffffffff16610ae06109e5565b73ffffffffffffffffffffffffffffffffffffffff1614610b36576040517f08c379a0000000000000000000000000000000000000000000000000000000008152600401610b2d90612b39565b60405180910390fd5b610b5133838360405180602001604052806000815250611539565b5050565b6000600260008473ffffffffffffffffffffffffffffffffffffffff1673ffffffffffffffffffffffffffffffffffffffff16815260200190815260200160002060008373ffffffffffffffffffffffffffffffffffffffff1673ffffffffffffffffffffffffffffffffffffffff16815260200190815260200160002060009054906101000a900460ff16905092915050565b610bf1610dec565b73ffffffffffffffffffffffffffffffffffffffff168573ffffffffffffffffffffffffffffffffffffffff161480610c375750610c3685610c31610dec565b610b55565b5b610c76576040517f08c379a0000000000000000000000000000000000000000000000000000000008152600401610c6d90612ab9565b60405180910390fd5b610c8385858585856117a4565b5050505050565b610c92610dec565b73ffffffffffffffffffffffffffffffffffffffff16610cb06109e5565b73ffffffffffffffffffffffffffffffffffffffff1614610d06576040517f08c379a0000000000000000000000000000000000000000000000000000000008152600401610cfd90612b39565b60405180910390fd5b600073ffffffffffffffffffffffffffffffffffffffff168173ffffffffffffffffffffffffffffffffffffffff161415610d76576040517f08c379a0000000000000000000000000000000000000000000000000000000008152600401610d6d90612a99565b60405180910390fd5b610d7f81611308565b50565b60007f01ffc9a7000000000000000000000000000000000000000000000000000000007bffffffffffffffffffffffffffffffffffffffffffffffffffffffff1916827bffffffffffffffffffffffffffffffffffffffffffffffffffffffff1916149050919050565b600033905090565b8060039080519060200190610e0a929190611ed8565b5050565b600073ffffffffffffffffffffffffffffffffffffffff168473ffffffffffffffffffffffffffffffffffffffff161415610e7e576040517f08c379a0000000000000000000000000000000000000000000000000000000008152600401610e7590612bb9565b60405180910390fd5b6000610e88610dec565b9050610ea981600087610e9a88611a29565b610ea388611a29565b87611aef565b826001600086815260200190815260200160002060008773ffffffffffffffffffffffffffffffffffffffff1673ffffffffffffffffffffffffffffffffffffffff1681526020019081526020016000206000828254610f099190612d6d565b925050819055508473ffffffffffffffffffffffffffffffffffffffff16600073ffffffffffffffffffffffffffffffffffffffff168273ffffffffffffffffffffffffffffffffffffffff167fc3d58168c5ae7397731d063d5bbf3d657854427343f4c083240f7aacaa2d0f628787604051610f87929190612bf4565b60405180910390a4610f9e81600087878787611af7565b5050505050565b8151835114610fe9576040517f08c379a0000000000000000000000000000000000000000000000000000000008152600401610fe090612b99565b60405180910390fd5b600073ffffffffffffffffffffffffffffffffffffffff168473ffffffffffffffffffffffffffffffffffffffff161415611059576040517f08c379a000000000000000000000000000000000000000000000000000000000815260040161105090612ad9565b60405180910390fd5b6000611063610dec565b9050611073818787878787611aef565b60005b84518110156112735760008582815181106110ba577f4e487b7100000000000000000000000000000000000000000000000000000000600052603260045260246000fd5b6020026020010151905060008583815181106110ff577f4e487b7100000000000000000000000000000000000000000000000000000000600052603260045260246000fd5b6020026020010151905060006001600084815260200190815260200160002060008b73ffffffffffffffffffffffffffffffffffffffff1673ffffffffffffffffffffffffffffffffffffffff168152602001908152602001600020549050818110156111a1576040517f08c379a000000000000000000000000000000000000000000000000000000000815260040161119890612b19565b60405180910390fd5b8181036001600085815260200190815260200160002060008c73ffffffffffffffffffffffffffffffffffffffff1673ffffffffffffffffffffffffffffffffffffffff16815260200190815260200160002081905550816001600085815260200190815260200160002060008b73ffffffffffffffffffffffffffffffffffffffff1673ffffffffffffffffffffffffffffffffffffffff16815260200190815260200160002060008282546112589190612d6d565b925050819055505050508061126c90612edc565b9050611076565b508473ffffffffffffffffffffffffffffffffffffffff168673ffffffffffffffffffffffffffffffffffffffff168273ffffffffffffffffffffffffffffffffffffffff167f4a39dc06d4c0dbc64b70af90fd698a233a518aa5d07e595d983b8c0526c8f7fb87876040516112ea9291906129c5565b60405180910390a4611300818787878787611cde565b505050505050565b60008060009054906101000a900473ffffffffffffffffffffffffffffffffffffffff169050816000806101000a81548173ffffffffffffffffffffffffffffffffffffffff021916908373ffffffffffffffffffffffffffffffffffffffff1602179055508173ffffffffffffffffffffffffffffffffffffffff168173ffffffffffffffffffffffffffffffffffffffff167f8be0079c531659141344cd1fd0a4f28419497f9722a3daafe3b4186f6b6457e060405160405180910390a35050565b8173ffffffffffffffffffffffffffffffffffffffff168373ffffffffffffffffffffffffffffffffffffffff16141561143b576040517f08c379a000000000000000000000000000000000000000000000000000000000815260040161143290612b59565b60405180910390fd5b80600260008573ffffffffffffffffffffffffffffffffffffffff1673ffffffffffffffffffffffffffffffffffffffff16815260200190815260200160002060008473ffffffffffffffffffffffffffffffffffffffff1673ffffffffffffffffffffffffffffffffffffffff16815260200190815260200160002060006101000a81548160ff0219169083151502179055508173ffffffffffffffffffffffffffffffffffffffff168373ffffffffffffffffffffffffffffffffffffffff167f17307eab39ab6107e8899845ad3d59bd9653f200f220920489ca2b5937696c318360405161152c91906129fc565b60405180910390a3505050565b600073ffffffffffffffffffffffffffffffffffffffff168473ffffffffffffffffffffffffffffffffffffffff1614156115a9576040517f08c379a00000000000000000000000000000000000000000000000000000000081526004016115a090612bb9565b60405180910390fd5b81518351146115ed576040517f08c379a00000000000000000000000000000000000000000000000000000000081526004016115e490612b99565b60405180910390fd5b60006115f7610dec565b905061160881600087878787611aef565b60005b845181101561170e5783818151811061164d577f4e487b7100000000000000000000000000000000000000000000000000000000600052603260045260246000fd5b602002602001015160016000878481518110611692577f4e487b7100000000000000000000000000000000000000000000000000000000600052603260045260246000fd5b6020026020010151815260200190815260200160002060008873ffffffffffffffffffffffffffffffffffffffff1673ffffffffffffffffffffffffffffffffffffffff16815260200190815260200160002060008282546116f49190612d6d565b92505081905550808061170690612edc565b91505061160b565b508473ffffffffffffffffffffffffffffffffffffffff16600073ffffffffffffffffffffffffffffffffffffffff168273ffffffffffffffffffffffffffffffffffffffff167f4a39dc06d4c0dbc64b70af90fd698a233a518aa5d07e595d983b8c0526c8f7fb87876040516117869291906129c5565b60405180910390a461179d81600087878787611cde565b5050505050565b600073ffffffffffffffffffffffffffffffffffffffff168473ffffffffffffffffffffffffffffffffffffffff161415611814576040517f08c379a000000000000000000000000000000000000000000000000000000000815260040161180b90612ad9565b60405180910390fd5b600061181e610dec565b905061183e81878761182f88611a29565b61183888611a29565b87611aef565b60006001600086815260200190815260200160002060008873ffffffffffffffffffffffffffffffffffffffff1673ffffffffffffffffffffffffffffffffffffffff168152602001908152602001600020549050838110156118d6576040517f08c379a00000000000000000000000000000000000000000000000000000000081526004016118cd90612b19565b60405180910390fd5b8381036001600087815260200190815260200160002060008973ffffffffffffffffffffffffffffffffffffffff1673ffffffffffffffffffffffffffffffffffffffff16815260200190815260200160002081905550836001600087815260200190815260200160002060008873ffffffffffffffffffffffffffffffffffffffff1673ffffffffffffffffffffffffffffffffffffffff168152602001908152602001600020600082825461198d9190612d6d565b925050819055508573ffffffffffffffffffffffffffffffffffffffff168773ffffffffffffffffffffffffffffffffffffffff168373ffffffffffffffffffffffffffffffffffffffff167fc3d58168c5ae7397731d063d5bbf3d657854427343f4c083240f7aacaa2d0f628888604051611a0a929190612bf4565b60405180910390a4611a20828888888888611af7565b50505050505050565b60606000600167ffffffffffffffff811115611a6e577f4e487b7100000000000000000000000000000000000000000000000000000000600052604160045260246000fd5b604051908082528060200260200182016040528015611a9c5781602001602082028036833780820191505090505b5090508281600081518110611ada577f4e487b7100000000000000000000000000000000000000000000000000000000600052603260045260246000fd5b60200260200101818152505080915050919050565b505050505050565b611b168473ffffffffffffffffffffffffffffffffffffffff16611ec5565b15611cd6578373ffffffffffffffffffffffffffffffffffffffff1663f23a6e6187878686866040518663ffffffff1660e01b8152600401611b5c959493929190612949565b602060405180830381600087803b158015611b7657600080fd5b505af1925050508015611ba757506040513d601f19601f82011682018060405250810190611ba4919061250c565b60015b611c4d57611bb3612fb2565b806308c379a01415611c105750611bc86133cf565b80611bd35750611c12565b806040517f08c379a0000000000000000000000000000000000000000000000000000000008152600401611c079190612a17565b60405180910390fd5b505b6040517f08c379a0000000000000000000000000000000000000000000000000000000008152600401611c4490612a39565b60405180910390fd5b63f23a6e6160e01b7bffffffffffffffffffffffffffffffffffffffffffffffffffffffff1916817bffffffffffffffffffffffffffffffffffffffffffffffffffffffff191614611cd4576040517f08c379a0000000000000000000000000000000000000000000000000000000008152600401611ccb90612a59565b60405180910390fd5b505b505050505050565b611cfd8473ffffffffffffffffffffffffffffffffffffffff16611ec5565b15611ebd578373ffffffffffffffffffffffffffffffffffffffff1663bc197c8187878686866040518663ffffffff1660e01b8152600401611d439594939291906128e1565b602060405180830381600087803b158015611d5d57600080fd5b505af1925050508015611d8e57506040513d601f19601f82011682018060405250810190611d8b919061250c565b60015b611e3457611d9a612fb2565b806308c379a01415611df75750611daf6133cf565b80611dba5750611df9565b806040517f08c379a0000000000000000000000000000000000000000000000000000000008152600401611dee9190612a17565b60405180910390fd5b505b6040517f08c379a0000000000000000000000000000000000000000000000000000000008152600401611e2b90612a39565b60405180910390fd5b63bc197c8160e01b7bffffffffffffffffffffffffffffffffffffffffffffffffffffffff1916817bffffffffffffffffffffffffffffffffffffffffffffffffffffffff191614611ebb576040517f08c379a0000000000000000000000000000000000000000000000000000000008152600401611eb290612a59565b60405180910390fd5b505b505050505050565b600080823b905060008111915050919050565b828054611ee490612e79565b90600052602060002090601f016020900481019282611f065760008555611f4d565b82601f10611f1f57805160ff1916838001178555611f4d565b82800160010185558215611f4d579182015b82811115611f4c578251825591602001919060010190611f31565b5b509050611f5a9190611f5e565b5090565b5b80821115611f77576000816000905550600101611f5f565b5090565b6000611f8e611f8984612c42565b612c1d565b90508083825260208201905082856020860282011115611fad57600080fd5b60005b85811015611fdd5781611fc388826120cf565b845260208401935060208301925050600181019050611fb0565b5050509392505050565b6000611ffa611ff584612c6e565b612c1d565b9050808382526020820190508285602086028201111561201957600080fd5b60005b85811015612049578161202f88826121cb565b84526020840193506020830192505060018101905061201c565b5050509392505050565b600061206661206184612c9a565b612c1d565b90508281526020810184848401111561207e57600080fd5b612089848285612e37565b509392505050565b60006120a461209f84612ccb565b612c1d565b9050828152602081018484840111156120bc57600080fd5b6120c7848285612e37565b509392505050565b6000813590506120de81613465565b92915050565b600082601f8301126120f557600080fd5b8135612105848260208601611f7b565b91505092915050565b600082601f83011261211f57600080fd5b813561212f848260208601611fe7565b91505092915050565b6000813590506121478161347c565b92915050565b60008135905061215c81613493565b92915050565b60008151905061217181613493565b92915050565b600082601f83011261218857600080fd5b8135612198848260208601612053565b91505092915050565b600082601f8301126121b257600080fd5b81356121c2848260208601612091565b91505092915050565b6000813590506121da816134aa565b92915050565b6000602082840312156121f257600080fd5b6000612200848285016120cf565b91505092915050565b6000806040838503121561221c57600080fd5b600061222a858286016120cf565b925050602061223b858286016120cf565b9150509250929050565b600080600080600060a0868803121561225d57600080fd5b600061226b888289016120cf565b955050602061227c888289016120cf565b945050604086013567ffffffffffffffff81111561229957600080fd5b6122a58882890161210e565b935050606086013567ffffffffffffffff8111156122c257600080fd5b6122ce8882890161210e565b925050608086013567ffffffffffffffff8111156122eb57600080fd5b6122f788828901612177565b9150509295509295909350565b600080600080600060a0868803121561231c57600080fd5b600061232a888289016120cf565b955050602061233b888289016120cf565b945050604061234c888289016121cb565b935050606061235d888289016121cb565b925050608086013567ffffffffffffffff81111561237a57600080fd5b61238688828901612177565b9150509295509295909350565b600080604083850312156123a657600080fd5b60006123b4858286016120cf565b92505060206123c585828601612138565b9150509250929050565b600080604083850312156123e257600080fd5b60006123f0858286016120cf565b9250506020612401858286016121cb565b9150509250929050565b6000806040838503121561241e57600080fd5b600083013567ffffffffffffffff81111561243857600080fd5b612444858286016120e4565b925050602083013567ffffffffffffffff81111561246157600080fd5b61246d8582860161210e565b9150509250929050565b6000806040838503121561248a57600080fd5b600083013567ffffffffffffffff8111156124a457600080fd5b6124b08582860161210e565b925050602083013567ffffffffffffffff8111156124cd57600080fd5b6124d98582860161210e565b9150509250929050565b6000602082840312156124f557600080fd5b60006125038482850161214d565b91505092915050565b60006020828403121561251e57600080fd5b600061252c84828501612162565b91505092915050565b60006020828403121561254757600080fd5b600082013567ffffffffffffffff81111561256157600080fd5b61256d848285016121a1565b91505092915050565b60006020828403121561258857600080fd5b6000612596848285016121cb565b91505092915050565b600080604083850312156125b257600080fd5b60006125c0858286016121cb565b92505060206125d1858286016121cb565b9150509250929050565b60006125e783836128a8565b60208301905092915050565b6125fc81612dc3565b82525050565b600061260d82612d0c565b6126178185612d3a565b935061262283612cfc565b8060005b8381101561265357815161263a88826125db565b975061264583612d2d565b925050600181019050612626565b5085935050505092915050565b61266981612dd5565b82525050565b600061267a82612d17565b6126848185612d4b565b9350612694818560208601612e46565b61269d81612fd4565b840191505092915050565b60006126b382612d22565b6126bd8185612d5c565b93506126cd818560208601612e46565b6126d681612fd4565b840191505092915050565b60006126ee603483612d5c565b91506126f982612ff2565b604082019050919050565b6000612711602883612d5c565b915061271c82613041565b604082019050919050565b6000612734602b83612d5c565b915061273f82613090565b604082019050919050565b6000612757602683612d5c565b9150612762826130df565b604082019050919050565b600061277a602983612d5c565b91506127858261312e565b604082019050919050565b600061279d602583612d5c565b91506127a88261317d565b604082019050919050565b60006127c0603283612d5c565b91506127cb826131cc565b604082019050919050565b60006127e3602a83612d5c565b91506127ee8261321b565b604082019050919050565b6000612806602083612d5c565b91506128118261326a565b602082019050919050565b6000612829602983612d5c565b915061283482613293565b604082019050919050565b600061284c602983612d5c565b9150612857826132e2565b604082019050919050565b600061286f602883612d5c565b915061287a82613331565b604082019050919050565b6000612892602183612d5c565b915061289d82613380565b604082019050919050565b6128b181612e2d565b82525050565b6128c081612e2d565b82525050565b60006020820190506128db60008301846125f3565b92915050565b600060a0820190506128f660008301886125f3565b61290360208301876125f3565b81810360408301526129158186612602565b905081810360608301526129298185612602565b9050818103608083015261293d818461266f565b90509695505050505050565b600060a08201905061295e60008301886125f3565b61296b60208301876125f3565b61297860408301866128b7565b61298560608301856128b7565b8181036080830152612997818461266f565b90509695505050505050565b600060208201905081810360008301526129bd8184612602565b905092915050565b600060408201905081810360008301526129df8185612602565b905081810360208301526129f38184612602565b90509392505050565b6000602082019050612a116000830184612660565b92915050565b60006020820190508181036000830152612a3181846126a8565b905092915050565b60006020820190508181036000830152612a52816126e1565b9050919050565b60006020820190508181036000830152612a7281612704565b9050919050565b60006020820190508181036000830152612a9281612727565b9050919050565b60006020820190508181036000830152612ab28161274a565b9050919050565b60006020820190508181036000830152612ad28161276d565b9050919050565b60006020820190508181036000830152612af281612790565b9050919050565b60006020820190508181036000830152612b12816127b3565b9050919050565b60006020820190508181036000830152612b32816127d6565b9050919050565b60006020820190508181036000830152612b52816127f9565b9050919050565b60006020820190508181036000830152612b728161281c565b9050919050565b60006020820190508181036000830152612b928161283f565b9050919050565b60006020820190508181036000830152612bb281612862565b9050919050565b60006020820190508181036000830152612bd281612885565b9050919050565b6000602082019050612bee60008301846128b7565b92915050565b6000604082019050612c0960008301856128b7565b612c1660208301846128b7565b9392505050565b6000612c27612c38565b9050612c338282612eab565b919050565b6000604051905090565b600067ffffffffffffffff821115612c5d57612c5c612f83565b5b602082029050602081019050919050565b600067ffffffffffffffff821115612c8957612c88612f83565b5b602082029050602081019050919050565b600067ffffffffffffffff821115612cb557612cb4612f83565b5b612cbe82612fd4565b9050602081019050919050565b600067ffffffffffffffff821115612ce657612ce5612f83565b5b612cef82612fd4565b9050602081019050919050565b6000819050602082019050919050565b600081519050919050565b600081519050919050565b600081519050919050565b6000602082019050919050565b600082825260208201905092915050565b600082825260208201905092915050565b600082825260208201905092915050565b6000612d7882612e2d565b9150612d8383612e2d565b9250827fffffffffffffffffffffffffffffffffffffffffffffffffffffffffffffffff03821115612db857612db7612f25565b5b828201905092915050565b6000612dce82612e0d565b9050919050565b60008115159050919050565b60007fffffffff0000000000000000000000000000000000000000000000000000000082169050919050565b600073ffffffffffffffffffffffffffffffffffffffff82169050919050565b6000819050919050565b82818337600083830152505050565b60005b83811015612e64578082015181840152602081019050612e49565b83811115612e73576000848401525b50505050565b60006002820490506001821680612e9157607f821691505b60208210811415612ea557612ea4612f54565b5b50919050565b612eb482612fd4565b810181811067ffffffffffffffff82111715612ed357612ed2612f83565b5b80604052505050565b6000612ee782612e2d565b91507fffffffffffffffffffffffffffffffffffffffffffffffffffffffffffffffff821415612f1a57612f19612f25565b5b600182019050919050565b7f4e487b7100000000000000000000000000000000000000000000000000000000600052601160045260246000fd5b7f4e487b7100000000000000000000000000000000000000000000000000000000600052602260045260246000fd5b7f4e487b7100000000000000000000000000000000000000000000000000000000600052604160045260246000fd5b600060033d1115612fd15760046000803e612fce600051612fe5565b90505b90565b6000601f19601f8301169050919050565b60008160e01c9050919050565b7f455243313135353a207472616e7366657220746f206e6f6e204552433131353560008201527f526563656976657220696d706c656d656e746572000000000000000000000000602082015250565b7f455243313135353a204552433131353552656365697665722072656a6563746560008201527f6420746f6b656e73000000000000000000000000000000000000000000000000602082015250565b7f455243313135353a2062616c616e636520717565727920666f7220746865207a60008201527f65726f2061646472657373000000000000000000000000000000000000000000602082015250565b7f4f776e61626c653a206e6577206f776e657220697320746865207a65726f206160008201527f6464726573730000000000000000000000000000000000000000000000000000602082015250565b7f455243313135353a2063616c6c6572206973206e6f74206f776e6572206e6f7260008201527f20617070726f7665640000000000000000000000000000000000000000000000602082015250565b7f455243313135353a207472616e7366657220746f20746865207a65726f20616460008201527f6472657373000000000000000000000000000000000000000000000000000000602082015250565b7f455243313135353a207472616e736665722063616c6c6572206973206e6f742060008201527f6f776e6572206e6f7220617070726f7665640000000000000000000000000000602082015250565b7f455243313135353a20696e73756666696369656e742062616c616e636520666f60008201527f72207472616e7366657200000000000000000000000000000000000000000000602082015250565b7f4f776e61626c653a2063616c6c6572206973206e6f7420746865206f776e6572600082015250565b7f455243313135353a2073657474696e6720617070726f76616c2073746174757360008201527f20666f722073656c660000000000000000000000000000000000000000000000602082015250565b7f455243313135353a206163636f756e747320616e6420696473206c656e67746860008201527f206d69736d617463680000000000000000000000000000000000000000000000602082015250565b7f455243313135353a2069647320616e6420616d6f756e7473206c656e6774682060008201527f6d69736d61746368000000000000000000000000000000000000000000000000602082015250565b7f455243313135353a206d696e7420746f20746865207a65726f2061646472657360008201527f7300000000000000000000000000000000000000000000000000000000000000602082015250565b600060443d10156133df57613462565b6133e7612c38565b60043d036004823e80513d602482011167ffffffffffffffff8211171561340f575050613462565b808201805167ffffffffffffffff81111561342d5750505050613462565b80602083010160043d03850181111561344a575050505050613462565b61345982602001850186612eab565b82955050505050505b90565b61346e81612dc3565b811461347957600080fd5b50565b61348581612dd5565b811461349057600080fd5b50565b61349c81612de1565b81146134a757600080fd5b50565b6134b381612e2d565b81146134be57600080fd5b5056fea26469706673582212203a6d47804aa92ed0e1358d0bee2185cdc5dc82d499c411243ff88bad47bcc07e64736f6c63430008040033697066733a2f2f516d5575736f4761754b475536457347444c627150695a4b3850456e48445259486134633979764a7868544863672f7b69647d2e6a736f6e",
  "linkReferences": {},
  "deployedLinkReferences": {}
}